:100000000C9463000C948B000C948B000C948B006C
:100010000C948B000C948B000C948B000C948B0034
:100020000C948B000C948B000C948B000C948B0024
:100030000C948B000C948B000C948B000C948B0014
:100040000C9443040C948B000C948B000C948B0048
:100050000C948B000C948B000C948B000C948B00F4
:100060000C948B000C948B000000000024002700EF
:100070002A0000000000250028002B0000000008D6
:10008000000201000003040700000000000000005F
:1000900000000000230026002900040404040404D6
:1000A0000404020202020202030303030303010227
:1000B00004081020408001020408102001020408F6
:1000C0001020FF07AD0811241FBECFEFD8E0DEBF20
:1000D000CDBF22E0A2EDB1E001C01D92AA38B20767
:1000E000E1F711E0A0E0B1E0E4E9F6E102C005903B
:1000F0000D92A23DB107D9F710E0C2E6D0E004C0EE
:100100002197FE010E942B09C136D107C9F70E9431
:10011000D2040C943D0B0C94000096E0899FD00112
:100120001124A150BE4F90967C936E935F9791E0FF
:1001300091969C93919790916B02E0916C02F09153
:100140006D02992339F0309751F0811108C08091E8
:100150001B0204C0309719F05C968C9109940895A5
:10016000CF92DF92EF92FF920F931F93CF93DF9383
:100170006C017A018B01C0E0D0E0CE15DF0589F07B
:10018000D8016D918D01D601ED91FC910190F08126
:10019000E02DC6010995892B11F47E0102C021963C
:1001A000ECCFC701DF91CF911F910F91FF90EF909E
:1001B000DF90CF900895833081F028F4813099F05A
:1001C0008230A1F008958730A9F08830B9F08430EA
:1001D000D1F4809180008F7D03C0809180008F7763
:1001E00080938000089584B58F7702C084B58F7D99
:1001F00084BD08958091B0008F7703C08091B000D6
:100200008F7D8093B0000895CF93DF93282F30E047
:10021000F901E458FF4F8491F901E255FF4FD49161
:10022000F901E656FF4FC491CC2391F081110E9451
:10023000DB00EC2FF0E0EE0FFF1FE057FF4FA59122
:10024000B491EC91ED2381E090E021F480E002C0D4
:1002500080E090E0DF91CF910895862F0C94040107
:100260001F93CF93DF93282F30E0F901E458FF4F1D
:100270008491F901E255FF4FD491F901E656FF4F01
:10028000C491CC23C9F0162F81110E94DB00EC2F02
:10029000F0E0EE0FFF1FEE58FF4FA591B4918FB71E
:1002A000F894111105C09C91ED2FE095E92302C04F
:1002B000EC91ED2BEC938FBFDF91CF911F910895BF
:1002C000862F642F0C943001CF93DF9390E0FC01D4
:1002D000E255FF4F2491FC01E656FF4F849188239D
:1002E00061F190E0880F991FFC01E859FF4FC5911B
:1002F000D491FC01EE58FF4FA591B491611109C052
:100300009FB7F8948881209582238883EC912E23CF
:100310000BC0623061F49FB7F8943881822F8095CA
:1003200083238883EC912E2B2C939FBF06C08FB71D
:10033000F894E8812E2B28838FBFDF91CF91089509
:10034000862F642F0C9464013FB7F8948091D701F5
:100350009091D801A091D901B091DA0126B5A89B5E
:1003600005C02F3F19F00196A11DB11D3FBFBA2F47
:10037000A92F982F8827820F911DA11DB11DBC01A7
:10038000CD0142E0660F771F881F991F4A95D1F76C
:1003900008958F929F92AF92BF92CF92DF92EF9289
:1003A000FF926B017C010E94A4014B015C01C1140E
:1003B000D104E104F104F1F00E94A401DC01CB01BD
:1003C00088199909AA09BB09883E9340A105B1057E
:1003D00070F321E0C21AD108E108F10888EE880E16
:1003E00083E0981EA11CB11CC114D104E104F104E6
:1003F00019F7DDCFFF90EF90DF90CF90BF90AF90D7
:100400009F908F9008952FB7F8946091D3017091C9
:10041000D4018091D5019091D6012FBF08950F93FB
:100420001F93CF93DF93C82FD62F86E0C89FF0018C
:100430001124E150FE4F11A2878D90A181309105CA
:10044000F1F01CF4892B49F043C082309105A9F1E9
:100450000397F1F560E070E034C06623C9F161E014
:1004600070E08C2F0E948D000E940302609357025F
:10047000709358028093590290935A0229C00E94A7
:1004800003020091570210915802209159023091B5
:100490005A02AB01BC01401B510B620B730B8091E4
:1004A000690290916A02A0E0B0E084179507A60760
:1004B000B70718F462E070E004C0D11109C063E02E
:1004C00070E08C2FDF91CF911F910F910C948D00D4
:1004D000DF91CF911F910F910895CF93DF93EC019E
:1004E00060E08E810E94300161E08E810E943001C7
:1004F00060E08E810E9430018BE891E00197F1F776
:10050000DF91CF910895CF92DF92EF92FF920F93F8
:100510001F93CF93DF937C016C0187E0C80ED11C41
:10052000C0E0D0E0062F10E0B8010C2E02C0759597
:1005300067950A94E2F76170F60181916F010E945C
:1005400030012196C430D10579F7C701DF91CF91F1
:100550001F910F91FF90EF90DF90CF900C946D0260
:10056000CF92DF92EF92FF920F931F93CF93DF937F
:10057000EC01F62E642F8C810E9430018D818F3F1B
:1005800019F060E00E9430018F850F2D10E084FF8C
:1005900025C06E0187E0C80ED11CE12CF12CB801FA
:1005A0000E2C02C0759567950A94E2F76170F6010A
:1005B00081916F010E943001FFEFEF1AFF0A88E07E
:1005C000E816F10461F7CE01DF91CF911F910F91F1
:1005D000FF90EF90DF90CF900C946D02B80184E013
:1005E000759567958A95E1F7CE010E9483026F2D7C
:1005F000CE01DF91CF911F910F91FF90EF90DF908F
:10060000CF900C94830241E00E94B00281E090E020
:10061000089540E00C94B002643008F063E09091DB
:100620008102691710F06FEF690FE62FF0E0E259D1
:10063000FD4F9489682F690F60688EE692E00C94F4
:10064000090361E00E9409038BE39FE10197F1F741
:100650000895EF92FF920F931F93CF93DF93EC01D6
:10066000623018F08F8588608F876B8B1C8A80E4DE
:100670008D8B80E18E8B80E58F8B61E08C810E9479
:1006800064018D818F3F19F061E00E94640161E097
:100690008E810E9464017E0187E0E80EF11C00E07B
:1006A00010E08F8584FD03C084E090E002C088E004
:1006B00090E0081719074CF461E0F70181917F0180
:1006C0000E9464010F5F1F4FECCF8BE39DE0019709
:1006D000F1F760E08C810E94300160E08E810E9421
:1006E00030018D818F3F19F060E00E9430016F85ED
:1006F00064FD1DC063E0CE010E9483020BE416E49A
:10070000C8010197F1F763E0CE010E948302C8019E
:100710000197F1F763E0CE010E94830283E592E046
:100720000197F1F762E0CE010E94830216C0606279
:10073000CE010E9409038BE496E40197F1F76F85DF
:100740006062CE010E94090383E592E00197F1F710
:100750006F856062CE010E9409036F856062CE01E1
:100760000E94090384E0888B6CE0CE010E9409039B
:10077000CE010E94210382E0898B66E0CE01DF91E9
:10078000CF911F910F91FF90EF900C940903089562
:1007900080E090E00895009769F0FC01019000204E
:1007A000E9F73197AF01481B590BBC018EE692E087
:1007B0000C94B00080E090E008950C94CB038EE69A
:1007C00092E00E94210387E391E00E94DD0361E053
:1007D00080E00E940C0388E491E00E94DD0361E068
:1007E0008AE00E940C03EEE6F2E06089862F8160C9
:1007F000808B6960CF010E94090381E080931A0118
:1008000008950E94280BEF92FF920F931F93CF93AE
:10081000DF93EC017B018A0188819981009729F09F
:100820002A813B8124173507F8F4B8016F5F7F4FA9
:100830000E945E0A009759F0998388831B830A837C
:100840002C813D81232B81F4FC0110820DC0888115
:100850009981009711F00E94C609198218821D82A1
:100860001C821B821A8207C01D830C83B7018881FA
:1008700099810E94360BCE01DF91CF911F910F918C
:10088000FF90EF9008951F920F920FB60F921124D0
:100890002F933F938F939F93AF93BF938091D301F7
:1008A0009091D401A091D501B091D6013091D2019F
:1008B00023E0230F2D3720F40196A11DB11D05C0A3
:1008C00026E8230F0296A11DB11D2093D20180932B
:1008D000D3019093D401A093D501B093D601809118
:1008E000D7019091D801A091D901B091DA01019678
:1008F000A11DB11D8093D7019093D801A093D90178
:10090000B093DA01BF91AF919F918F913F912F9159
:100910000F900FBE0F901F901895CF92DF92EF921D
:10092000FF920F931F93E82FF92F05C00150110973
:100930002109310961F1908196239417B9F305C01B
:10094000015011092109310911F190819623941365
:10095000F7CFC12CD12CE12CF12C0AC08FEFC81A93
:10096000D80AE80AF80A0C151D052E053F0579F08E
:1009700080818623841791F36C2D7D2D8E2D9F2DE4
:100980001F910F91FF90EF90DF90CF90089560E05E
:1009900070E080E090E01F910F91FF90EF90DF906A
:1009A000CF900895CF93DF93CDB7DEB728970FB6DA
:1009B000F894DEBF0FBECDBF789484B5826084BD4D
:1009C00084B5816084BD85B5826085BD85B5816053
:1009D00085BD80916E00816080936E0010928100D1
:1009E000809181008260809381008091810081608C
:1009F000809381008091800081608093800080914D
:100A0000B10084608093B1008091B00081608093D8
:100A1000B00080917A00846080937A0080917A009F
:100A2000826080937A0080917A00816080937A005E
:100A300080917A00806880937A001092C10062E011
:100A40008EE692E00E94290361E080E10E94640149
:100A50000E94DF036AE3862E912CA12CB12C412C3D
:100A6000512C3201439460E08091EB010E943001EF
:100A700083E090E00197F1F761E08091EB010E9443
:100A8000300183E290E00197F1F760E08091EB01A3
:100A90000E9430018091ED019091EE019927FC01B7
:100AA000E255FF4F6491FC01E656FF4FE491F0E000
:100AB000EE0FFF1FE057FF4F859194910091EF01DA
:100AC0001091F0012091F1013091F2013F70462F19
:100AD0000E948D04611571058105910539F0DC01D5
:100AE000CB010196A11DB11DBF7003C080E090E055
:100AF000DC018093F3019093F401A093F501B0938E
:100B0000F601892B8A2B8B2B81F48091EF01909138
:100B1000F001A091F101B091F2018093F301909363
:100B2000F401A093F501B093F6016091F301709187
:100B3000F4018091F5019091F601A50194010E94C4
:100B4000EA082093F7013093F8014093F90150939C
:100B5000FA013093EA012093E90181E080936B026E
:100B60000E94030200915B0210915C0220915D02E1
:100B700030915E02AB01BC01401B510B620B730B49
:100B80008091670290916802A0E0B0E08417950719
:100B9000A607B70708F013C110E080916502181787
:100BA00060F4E0916102F0916202E10FF11D62E0F8
:100BB00080810E9464011F5FF0CFD12C809166027A
:100BC000D81608F066C0ED2CF12CE0916302F0918C
:100BD0006402EE0DFF1D61E080810E946401E091DE
:100BE0006302F0916402EE0DFF1D60E080810E94BF
:100BF0003001D301C2010D2C04C0880F991FAA1F18
:100C0000BB1F0A94D2F79C011C0120943094C12C84
:100C100080916502C81630F50C2D10E080916102BC
:100C200090916202FC01E00FF11F80812F833887D1
:100C30000E9404010C5F1F4F2F813885000F111F88
:100C4000F801E150FE4F892B29F480819181822B9C
:100C5000932B04C080819181822193219183808391
:100C6000C394D6CFE0916302F0916402EE0DFF1DB4
:100C700061E080810E943001809163029091640262
:100C8000FC01EE0DFF1D60E080810E946401D394A1
:100C900095CFEBE1F2E08FEF9FEF23813481232B9F
:100CA00021F41082928381831582369622E0E73503
:100CB000F20799F710E036E0D32E809165021817FD
:100CC00008F057C000E0E12EF12CC701880F991FF2
:100CD0009C01295F3D4F790120916602021708F0BF
:100CE00046C0F70160817181002E02C0769567953C
:100CF0000A94E2F761707727129F90011124200F68
:100D0000311DE0915F02F0916002E20FF31FA081BC
:100D1000EFEFF1E080E0458D568D4217530711F457
:100D200061701BC08F5F36968A30A9F7672BE9F098
:100D3000EBE1F2E080E090E04081411111C0D89EEB
:100D4000A001D99E500D1124FA01E150FE4FA48F4D
:100D5000368F258F10A2178E61E00E940F0205C00A
:100D6000019636968A30910539F70F5FB5CF1F5F30
:100D7000A4CF80E090E010E0FC01E150FE4F21A103
:100D8000211111E006968C339105B1F70E94030200
:100D900060935B0270935C0280935D0290935E02AD
:100DA000112369F080912002882349F080911E026E
:100DB00090911F02019719F480911B0203C01092B9
:100DC0006B0280E010911A01112309F4FEC0882300
:100DD00009F4AAC02091E2013091E301F901EC513C
:100DE000FE4F80832F5F3F4F3093E3012093E2015A
:100DF000E0916E02F0916F020190F081E02D6AE2C5
:100E00008EE692E009958091E2019091E3010497CA
:100E10000CF48AC01A8219821C821B821E821D82D7
:100E20006091DC017091DD016115710541F0409127
:100E3000E0015091E101CE0101960E9403044D8131
:100E40005E8189819A81E4EEF1E020E030E07191E9
:100E50002417350710F4009729F41092DB01ABED4D
:100E6000B1E003C0DC01A20FB31F6C91761306C082
:100E70002F5F3F4F2430310551F701C010E00E9431
:100E8000C609112389F18EE692E00E94210383E5D1
:100E900091E00E94DD0360EA7FE080E090E00E9444
:100EA000C90181E090E090931901809318018EE6CA
:100EB00092E00E94210384E691E00E94CB0385E743
:100EC00091E00E94CB0361E080E00E940C0388E780
:100ED00091E00E94DD0310921A011092E80160E097
:100EE00080E10E9430011CC060E080E00E940C03A1
:100EF0008EE692E00E94210389E891E00E94DD03E2
:100F000061E080E00E940C038AE991E00E94DD0329
:100F100060EA7FE080E090E00E94C9010E94DF0368
:100F20001092E3011092E2018091E9019091EA01AF
:100F3000C39794F58091180190911901181619061C
:100F40005CF58EE692E00E9421038BEA91E00E941C
:100F5000DD0361E080E00E940C0388E491E00E94E0
:100F6000DD0361E08AE00E940C0360917E02862F1F
:100F7000816080937E0269608EE692E00E940903A0
:100F800081E08093E8018091180190911901019707
:100F900090931901809318018091E801882339F119
:100FA00061E080E10E94300160E570E080E090E067
:100FB0000E94C90160E080E10E94300168E270E0B7
:100FC00080E090E00E94C90112C0833281F48EE675
:100FD00092E00E9421038CEB91E00E94DD0364EC1F
:100FE00079E080E090E00E94C9010E94DF0380E088
:100FF00090E0892B09F437CD0E94000034CD109287
:10100000010210920502109204021092060281E37E
:1010100091E0909300028093FF0180E090E0FC015A
:10102000E150FE4F148E10A2178E11A206968C333B
:101030009105A9F784E091E09093620280936102A8
:1010400080E091E0909364028093630284E0809357
:1010500065028093660288E091E09093600280933D
:101060005F028AE090E0909368028093670284EFC9
:1010700091E090936A028093690210926D0210923F
:101080006C0210925B0210925C0210925D02109250
:101090005E0210926B02109271021092700285E251
:1010A00091E090936F0280936E028DE080937202C4
:1010B0008FEF809373028CE0809374028BE08093B7
:1010C00075028AE08093760281E080937702109225
:1010D00078021092790210927A0210927B0210929A
:1010E0007C0210927D0261E08EE692E00E9429036C
:1010F0001092DD011092DC011092DF011092DE01EE
:101100001092E1011092E00144E050E06DEC71E0DA
:101110008CED91E00E94030461E08EE00E94640186
:1011200060E08FE00E9464018EE090E09093EC011B
:101130008093EB018FE090E09093EE018093ED01BE
:1011400088EB9BE0A0E0B0E08093EF019093F0018A
:10115000A093F101B093F20108958091DC01909188
:10116000DD010C94C6092F923F924F925F926F92CD
:101170007F928F929F92AF92BF92CF92DF92EF9227
:10118000FF920F931F93CF93DF93CDB7DEB7CA1BA8
:10119000DB0B0FB6F894DEBF0FBECDBF09942A88D3
:1011A000398848885F846E847D848C849B84AA847B
:1011B000B984C884DF80EE80FD800C811B81AA8108
:1011C000B981CE0FD11D0FB6F894DEBF0FBECDBFD3
:1011D000ED010895052E97FB1EF400940E9401096D
:1011E00057FD07D00E94090907FC03D04EF40C9468
:1011F000010950954095309521953F4F4F4F5F4FD6
:10120000089590958095709561957F4F8F4F9F4F72
:101210000895A1E21A2EAA1BBB1BFD010DC0AA1F37
:10122000BB1FEE1FFF1FA217B307E407F50720F04F
:10123000A21BB30BE40BF50B661F771F881F991FCA
:101240001A9469F760957095809590959B01AC0113
:10125000BD01CF010895EE0FFF1F0590F491E02D21
:101260000994CF93DF938230910510F482E090E0EF
:10127000E0918802F091890220E030E0C0E0D0E007
:10128000309711F14081518148175907C0F0481734
:10129000590761F482819381209719F09B838A8397
:1012A0002BC0909389028093880226C021153105B6
:1012B00019F04217530718F49A01BE01DF01EF013C
:1012C0000280F381E02DDCCF2115310509F1281BC7
:1012D000390B2430310590F412968D919C9113971F
:1012E0006115710521F0FB019383828304C0909303
:1012F000890280938802FD01329644C0FD01E20F0D
:10130000F31F81939193225031092D933C933AC05E
:101310002091860230918702232B41F420911D01F8
:1013200030911E01309387022093860220911B0189
:1013300030911C012115310541F42DB73EB7409184
:101340001F0150912001241B350BE0918602F09182
:101350008702E217F307A0F42E1B3F0B281739076B
:1013600078F0AC014E5F5F4F2417350748F04E0F01
:101370005F1F50938702409386028193919302C02E
:10138000E0E0F0E0CF01DF91CF9108950F931F933C
:10139000CF93DF93009709F48CC0FC01329713823E
:1013A000128200918802109189020115110581F4C1
:1013B00020813181820F931F209186023091870214
:1013C0002817390779F5F0938702E093860271C0F8
:1013D000D80140E050E0AE17BF0750F412962D91AF
:1013E0003C911397AD012115310509F1D901F3CFD6
:1013F0009D01DA013383228360817181860F971FFB
:101400008217930769F4EC0128813981260F371F71
:101410002E5F3F4F318320838A819B819383828318
:10142000452B29F4F0938902E093880242C0139679
:10143000FC93EE931297ED01499159919E01240F6F
:10144000351FE217F30771F480819181840F951F96
:10145000029611969C938E938281938113969C930E
:101460008E931297E0E0F0E0D80112968D919C9156
:101470001397009719F0F8018C01F6CF8D919C918C
:1014800098012E5F3F4F820F931F2091860230916B
:1014900087022817390769F4309729F410928902D6
:1014A0001092880202C01382128210938702009366
:1014B0008602DF91CF911F910F910895A0E0B0E0D7
:1014C000E4E6FAE00C94B708EC01009721F4CB01B4
:1014D0000E943109B8C0FC01E60FF71F9C012250A1
:1014E0003109E217F30708F4ACC0D9010D911C9142
:1014F000119706171707B0F00530110508F49FC0C3
:10150000C80104978617970708F499C0025011097B
:10151000061B170B019311936D937C93CF010E94CF
:10152000C6098DC05B01A01AB10A4C01800E911E44
:10153000A0918802B091890240E050E0E12CF12CAA
:10154000109709F44AC0A815B905D1F56D907C90A3
:101550001197630182E0C80ED11CCA14DB0480F12C
:10156000A3014A195B096A0182E0C80ED11C1296D8
:10157000BC9012971396AC91B5E0CB16D10440F015
:10158000B282A38351834083D9016D937C930AC0B7
:101590000E5F1F4FC301800F911FF901918380835C
:1015A000EB2DFA2FE114F10431F0D7011396FC93DF
:1015B000EE93129744C0F0938902E09388023FC0F3
:1015C0008D919C9111974817590708F4AC017D0142
:1015D00012960D90BC91A02DB3CF80918602909170
:1015E000870288159905E1F446175707C8F48091DA
:1015F0001B0190911C01009741F48DB79EB740915B
:101600001F0150912001841B950BE817F907C8F4BE
:10161000F0938702E0938602F901718360830FC023
:10162000CB010E9431097C01009759F0A801BE014D
:101630000E942D0BCE010E94C609C70104C0CE0135
:1016400002C080E090E0CDB7DEB7EEE00C94D308A6
:1016500081E090E0F8940C943D0BFB01DC0102C0AA
:1016600001900D9241505040D8F70895FB01DC01E4
:1016700001900D920020E1F7089510E0C2E6D0E05D
:1016800004C0FE010E942B092196C336D107C9F779
:04169000F894FFCFFC
:101694000504030209080706313233413435364262
:1016A400373839432A30234401000100008A02807C
:1016B40000000000000303B000C803C703000000DB
:1016C40000A00160012D012A2A486F6D6520536531
:1016D40063757265642A2A00454E54455220504968
:1016E4004E3A0020414343455353204752414E5400
:1016F40045442000436F6D6D756E697479205361A4
:1017040066657479000D0A00486F6C6420232054C8
:101714006F205365637572650020496E636F727242
:10172400656374202050494E20002A4143434553A9
:1017340053202044454E4945442A0020494E5452E2
:101744005544455220414C4552542000536563751D
:10175400726974792020416374697665003132338B
:0217640034004F
:00000001FF
